{
  "contractName": "RentalFactory",
  "abi": [
    {
      "anonymous": false,
      "inputs": [
        {
          "indexed": true,
          "internalType": "address",
          "name": "contractAddress",
          "type": "address"
        },
        {
          "indexed": true,
          "internalType": "address",
          "name": "tenant",
          "type": "address"
        },
        {
          "indexed": true,
          "internalType": "address",
          "name": "owner",
          "type": "address"
        },
        {
          "indexed": false,
          "internalType": "uint256",
          "name": "itemId",
          "type": "uint256"
        }
      ],
      "name": "RentalContractCreated",
      "type": "event"
    },
    {
      "inputs": [
        {
          "internalType": "uint256",
          "name": "",
          "type": "uint256"
        }
      ],
      "name": "allContracts",
      "outputs": [
        {
          "internalType": "address",
          "name": "",
          "type": "address"
        }
      ],
      "stateMutability": "view",
      "type": "function",
      "constant": true
    },
    {
      "inputs": [
        {
          "internalType": "address",
          "name": "",
          "type": "address"
        },
        {
          "internalType": "uint256",
          "name": "",
          "type": "uint256"
        }
      ],
      "name": "userContracts",
      "outputs": [
        {
          "internalType": "address",
          "name": "",
          "type": "address"
        }
      ],
      "stateMutability": "view",
      "type": "function",
      "constant": true
    },
    {
      "inputs": [
        {
          "internalType": "address",
          "name": "_tenant",
          "type": "address"
        },
        {
          "internalType": "uint256",
          "name": "_itemId",
          "type": "uint256"
        },
        {
          "internalType": "uint256",
          "name": "_duration",
          "type": "uint256"
        },
        {
          "internalType": "uint256",
          "name": "_deposit",
          "type": "uint256"
        }
      ],
      "name": "createRentalContract",
      "outputs": [
        {
          "internalType": "address",
          "name": "",
          "type": "address"
        }
      ],
      "stateMutability": "payable",
      "type": "function",
      "payable": true
    },
    {
      "inputs": [
        {
          "internalType": "address",
          "name": "_user",
          "type": "address"
        }
      ],
      "name": "getUserContracts",
      "outputs": [
        {
          "internalType": "address[]",
          "name": "",
          "type": "address[]"
        }
      ],
      "stateMutability": "view",
      "type": "function",
      "constant": true
    },
    {
      "inputs": [],
      "name": "getAllContracts",
      "outputs": [
        {
          "internalType": "address[]",
          "name": "",
          "type": "address[]"
        }
      ],
      "stateMutability": "view",
      "type": "function",
      "constant": true
    },
    {
      "inputs": [],
      "name": "getContractCount",
      "outputs": [
        {
          "internalType": "uint256",
          "name": "",
          "type": "uint256"
        }
      ],
      "stateMutability": "view",
      "type": "function",
      "constant": true
    }
  ],
  "bytecode": "0x608060405234801561001057600080fd5b50611497806100206000396000f3fe6080604052600436106100555760003560e01c806318d3ce961461005a57806334c925f0146100855780639399869d146100a5578063b789003d146100c3578063e54e26b9146100fb578063f23b3a2c1461011b575b600080fd5b34801561006657600080fd5b5061006f61012e565b60405161007c919061044d565b60405180910390f35b34801561009157600080fd5b5061006f6100a03660046104b6565b610190565b3480156100b157600080fd5b5060005460405190815260200161007c565b3480156100cf57600080fd5b506100e36100de3660046104d8565b610206565b6040516001600160a01b03909116815260200161007c565b34801561010757600080fd5b506100e3610116366004610502565b61023e565b6100e361012936600461051b565b610268565b6060600080548060200260200160405190810160405280929190818152602001828054801561018657602002820191906000526020600020905b81546001600160a01b03168152600190910190602001808311610168575b5050505050905090565b6001600160a01b0381166000908152600160209081526040918290208054835181840281018401909452808452606093928301828280156101fa57602002820191906000526020600020905b81546001600160a01b031681526001909101906020018083116101dc575b50505050509050919050565b6001602052816000526040600020818154811061022257600080fd5b6000918252602090912001546001600160a01b03169150829050565b6000818154811061024e57600080fd5b6000918252602090912001546001600160a01b0316905081565b60006001600160a01b0385166102be5760405162461bcd60e51b8152602060048201526016602482015275496e76616c69642074656e616e74206164647265737360501b60448201526064015b60405180910390fd5b600034116103015760405162461bcd60e51b815260206004820152601060248201526f14185e5b595b9d081c995c5d5a5c995960821b60448201526064016102b5565b60003486338734888860405161031690610440565b6001600160a01b03968716815295909416602086015260408501929092526060840152608083015260a082015260c0016040518091039082f0905080158015610363573d6000803e3d6000fd5b5060008054600181810183557f290decd9548b62a8d60345a988386fc84ba6bc95484008f6362f93160ef3e56390910180546001600160a01b038086166001600160a01b03199283168117909355338086526020858152604080882080548089018255908952828920018054861687179055928e168088528388208054978801815588529620909401805490921683179091555193945084939192917f08fa842ec054b59aac6b7a974783ae7c63411b1a63b15cf3e8772d8c3d2ad0be9061042e908b815260200190565b60405180910390a49695505050505050565b610f0d8061055583390190565b6020808252825182820181905260009190848201906040850190845b8181101561048e5783516001600160a01b031683529284019291840191600101610469565b50909695505050505050565b80356001600160a01b03811681146104b157600080fd5b919050565b6000602082840312156104c857600080fd5b6104d18261049a565b9392505050565b600080604083850312156104eb57600080fd5b6104f48361049a565b946020939093013593505050565b60006020828403121561051457600080fd5b5035919050565b6000806000806080858703121561053157600080fd5b61053a8561049a565b96602086013596506040860135956060013594509250505056fe608060405260405162000f0d38038062000f0d8339810160408190526200002691620002e8565b6001600160a01b038616620000825760405162461bcd60e51b815260206004820152601660248201527f496e76616c69642074656e616e7420616464726573730000000000000000000060448201526064015b60405180910390fd5b6001600160a01b038516620000da5760405162461bcd60e51b815260206004820152601560248201527f496e76616c6964206f776e657220616464726573730000000000000000000000604482015260640162000079565b600083116200012c5760405162461bcd60e51b815260206004820152601d60248201527f416d6f756e74206d7573742062652067726561746572207468616e2030000000604482015260640162000079565b600082116200017e5760405162461bcd60e51b815260206004820152601f60248201527f4475726174696f6e206d7573742062652067726561746572207468616e203000604482015260640162000079565b82341015620001d05760405162461bcd60e51b815260206004820152601460248201527f496e73756666696369656e74207061796d656e74000000000000000000000000604482015260640162000079565b604051806101000160405280876001600160a01b03168152602001866001600160a01b03168152602001858152602001848152602001838152602001828152602001428152602001600060048111156200022e576200022e62000345565b90528051600080546001600160a01b039283166001600160a01b0319918216178255602084015160018054919094169116178255604083015160025560608301516003556080830151600490815560a084015160055560c084015160065560e08401516007805493949193909260ff1990911691908490811115620002b757620002b762000345565b02179055509050505050505050506200035b565b80516001600160a01b0381168114620002e357600080fd5b919050565b60008060008060008060c087890312156200030257600080fd5b6200030d87620002cb565b95506200031d60208801620002cb565b945060408701519350606087015192506080870151915060a087015190509295509295509295565b634e487b7160e01b600052602160045260246000fd5b610ba2806200036b6000396000f3fe6080604052600436106100865760003560e01c80636f9fb98a116100595780636f9fb98a14610167578063a118babd14610182578063dd94944814610197578063e1eb3ea9146101b7578063efc5eb8f1461018257600080fd5b8063181d13fc1461008b5780634280941c146100ea5780635c274b86146101485780636d76a58514610152575b600080fd5b34801561009757600080fd5b506000546001546002546003546004546005546006546007546100cd976001600160a01b03908116971695949392919060ff1688565b6040516100e1989796959493929190610956565b60405180910390f35b3480156100f657600080fd5b506100ff6101ca565b604080516001600160a01b03998a168152989097166020890152958701949094526060860192909252608085015260a084015260c083015260ff1660e0820152610100016100e1565b610150610238565b005b34801561015e57600080fd5b50610150610378565b34801561017357600080fd5b506040514781526020016100e1565b34801561018e57600080fd5b50610150610557565b3480156101a357600080fd5b506101506101b23660046109d9565b610610565b6101506101c5366004610a8a565b61078d565b600080546001546002546003546004805460055460065460075489988998899889988998899889986001600160a01b03968716989590961696939592949093909160ff9091169081111561022057610220610940565b969f959e50939c50919a509850965094509092509050565b6000546001600160a01b031633146102935760405162461bcd60e51b81526020600482015260196024820152784f6e6c792074656e616e742063616e2063616c6c207468697360381b60448201526064015b60405180910390fd5b600060075460ff1660048111156102ac576102ac610940565b146102ea5760405162461bcd60e51b815260206004820152600e60248201526d496e76616c69642073746174757360901b604482015260640161028a565b6005543410156103335760405162461bcd60e51b8152602060048201526014602482015273125b9cdd59999a58da595b9d0819195c1bdcda5d60621b604482015260640161028a565b6007805460ff1916600117905560405134815233907ff1953715a33b9e021c0f2cf12911e8ac25fdb177bf6fc92d1331ae05201fe9f6906020015b60405180910390a2565b6000546001600160a01b031633148061039b57506001546001600160a01b031633145b6103e75760405162461bcd60e51b815260206004820152601a60248201527f4f6e6c7920706172746965732063616e2063616c6c2074686973000000000000604482015260640161028a565b600160075460ff16600481111561040057610400610940565b146104415760405162461bcd60e51b815260206004820152601160248201527052656e74616c206e6f742061637469766560781b604482015260640161028a565b6007805460ff191660021790556001546003546040516001600160a01b03909216916108fc82150291906000818181858888f1935050505015801561048a573d6000803e3d6000fd5b506005541561051557600080546005546040516001600160a01b039092169281156108fc029290818181858888f193505050501580156104ce573d6000803e3d6000fd5b506000546005546040519081526001600160a01b03909116907f698270f63d8b673ed55a5ca00d14001bd808b390dbe11d5b1b16624863f71f779060200160405180910390a25b6000546003546040519081526001600160a01b03909116907feedd444c80a4085394147f0c073e0eaa38424e2202f53fd968d52b23477945d19060200161036e565b6001546001600160a01b031633146105b15760405162461bcd60e51b815260206004820152601860248201527f4f6e6c79206f776e65722063616e2063616c6c20746869730000000000000000604482015260640161028a565b600260075460ff1660048111156105ca576105ca610940565b1461060e5760405162461bcd60e51b815260206004820152601460248201527314995b9d185b081b9bdd0818dbdb5c1b195d195960621b604482015260640161028a565b565b6000546001600160a01b031633148061063357506001546001600160a01b031633145b61067f5760405162461bcd60e51b815260206004820152601a60248201527f4f6e6c7920706172746965732063616e2063616c6c2074686973000000000000604482015260640161028a565b600060075460ff16600481111561069857610698610940565b14806106ba5750600160075460ff1660048111156106b8576106b8610940565b145b6106f65760405162461bcd60e51b815260206004820152600d60248201526c10d85b9b9bdd0818d85b98d95b609a1b604482015260640161028a565b6007805460ff1916600390811790915554801561074857600080546040516001600160a01b039091169183156108fc02918491818181858888f19350505050158015610746573d6000803e3d6000fd5b505b336001600160a01b03167fe0302caf6e4144d6d5e38aff7235f0df49508b8871a6134e18df650525a43d17836040516107819190610ad2565b60405180910390a25050565b6000546001600160a01b031633146107e35760405162461bcd60e51b81526020600482015260196024820152784f6e6c792074656e616e742063616e2063616c6c207468697360381b604482015260640161028a565b600160075460ff1660048111156107fc576107fc610940565b1461083d5760405162461bcd60e51b815260206004820152601160248201527052656e74616c206e6f742061637469766560781b604482015260640161028a565b600454811161088e5760405162461bcd60e51b815260206004820152601b60248201527f4e6577206475726174696f6e206d757374206265206c6f6e6765720000000000604482015260640161028a565b60045460009061089e9083610b20565b6004546003549192506000916108b5908490610b33565b6108bf9190610b4a565b90508034101561091c5760405162461bcd60e51b815260206004820152602260248201527f496e73756666696369656e74207061796d656e7420666f7220657874656e736960448201526137b760f11b606482015260840161028a565b600483905560038054829190600090610936908490610ab9565b9091555050505050565b634e487b7160e01b600052602160045260246000fd5b6001600160a01b0389811682528816602082015260408101879052606081018690526080810185905260a0810184905260c081018390526101008101600583106109b057634e487b7160e01b600052602160045260246000fd5b8260e08301529998505050505050505050565b634e487b7160e01b600052604160045260246000fd5b6000602082840312156109eb57600080fd5b813567ffffffffffffffff80821115610a0357600080fd5b818401915084601f830112610a1757600080fd5b813581811115610a2957610a296109c3565b604051601f8201601f19908116603f01168101908382118183101715610a5157610a516109c3565b81604052828152876020848701011115610a6a57600080fd5b826020860160208301376000928101602001929092525095945050505050565b600060208284031215610a9c57600080fd5b5035919050565b634e487b7160e01b600052601160045260246000fd5b80820180821115610acc57610acc610aa3565b92915050565b600060208083528351808285015260005b81811015610aff57858101830151858201604001528201610ae3565b506000604082860101526040601f19601f8301168501019250505092915050565b81810381811115610acc57610acc610aa3565b8082028115828204841417610acc57610acc610aa3565b600082610b6757634e487b7160e01b600052601260045260246000fd5b50049056fea2646970667358221220eb585769f5c27e358f32d39b98e41119c8088c3850a0a6d2edafc92263c7235864736f6c63430008130033a2646970667358221220dceee90d36cf20869e1e1aa18b375b0cc61c1963774191592931edc92cfd5f1d64736f6c63430008130033",
  "immutableReferences": {},
  "source": "// SPDX-License-Identifier: MIT\npragma solidity ^0.8.19;\n\nimport \"./RentalContract.sol\";\n\ncontract RentalFactory {\n    address[] public allContracts;\n    mapping(address => address[]) public userContracts;\n    \n    event RentalContractCreated(\n        address indexed contractAddress,\n        address indexed tenant,\n        address indexed owner,\n        uint256 itemId\n    );\n    \n    function createRentalContract(\n        address _tenant,\n        uint256 _itemId,\n        uint256 _duration,\n        uint256 _deposit\n    ) external payable returns (address) {\n        require(_tenant != address(0), \"Invalid tenant address\");\n        require(msg.value > 0, \"Payment required\");\n        \n        RentalContract newContract = new RentalContract{value: msg.value}(\n            _tenant,\n            msg.sender, // owner\n            _itemId,\n            msg.value,\n            _duration,\n            _deposit\n        );\n        \n        address contractAddress = address(newContract);\n        \n        allContracts.push(contractAddress);\n        userContracts[msg.sender].push(contractAddress);\n        userContracts[_tenant].push(contractAddress);\n        \n        emit RentalContractCreated(contractAddress, _tenant, msg.sender, _itemId);\n        \n        return contractAddress;\n    }\n    \n    function getUserContracts(address _user) external view returns (address[] memory) {\n        return userContracts[_user];\n    }\n    \n    function getAllContracts() external view returns (address[] memory) {\n        return allContracts;\n    }\n    \n    function getContractCount() external view returns (uint256) {\n        return allContracts.length;\n    }\n}",
  "sourcePath": "/Users/zharkyn/Desktop/diplom/smart-contracts/contracts/RentalFactory.sol",
  "compiler": {
    "name": "solc",
    "version": "0.8.19+commit.7dd6d404.Emscripten.clang"
  },
  "schemaVersion": "3.4.16",
  "updatedAt": "2025-05-30T20:52:38.902Z",
  "networkType": "ethereum",
  "devdoc": {
    "kind": "dev",
    "methods": {},
    "version": 1
  },
  "userdoc": {
    "kind": "user",
    "methods": {},
    "version": 1
  }
}