{
  "contractName": "RentalContract",
  "abi": [
    {
      "inputs": [
        {
          "internalType": "address",
          "name": "_tenant",
          "type": "address"
        },
        {
          "internalType": "address",
          "name": "_owner",
          "type": "address"
        },
        {
          "internalType": "uint256",
          "name": "_itemId",
          "type": "uint256"
        },
        {
          "internalType": "uint256",
          "name": "_amount",
          "type": "uint256"
        },
        {
          "internalType": "uint256",
          "name": "_duration",
          "type": "uint256"
        },
        {
          "internalType": "uint256",
          "name": "_deposit",
          "type": "uint256"
        }
      ],
      "stateMutability": "payable",
      "type": "constructor"
    },
    {
      "anonymous": false,
      "inputs": [
        {
          "indexed": true,
          "internalType": "address",
          "name": "tenant",
          "type": "address"
        },
        {
          "indexed": false,
          "internalType": "uint256",
          "name": "amount",
          "type": "uint256"
        }
      ],
      "name": "DepositPaid",
      "type": "event"
    },
    {
      "anonymous": false,
      "inputs": [
        {
          "indexed": true,
          "internalType": "address",
          "name": "recipient",
          "type": "address"
        },
        {
          "indexed": false,
          "internalType": "uint256",
          "name": "amount",
          "type": "uint256"
        }
      ],
      "name": "DepositRefunded",
      "type": "event"
    },
    {
      "anonymous": false,
      "inputs": [
        {
          "indexed": true,
          "internalType": "address",
          "name": "initiator",
          "type": "address"
        },
        {
          "indexed": false,
          "internalType": "string",
          "name": "reason",
          "type": "string"
        }
      ],
      "name": "RentalCancelled",
      "type": "event"
    },
    {
      "anonymous": false,
      "inputs": [
        {
          "indexed": true,
          "internalType": "address",
          "name": "tenant",
          "type": "address"
        },
        {
          "indexed": false,
          "internalType": "uint256",
          "name": "amount",
          "type": "uint256"
        }
      ],
      "name": "RentalCompleted",
      "type": "event"
    },
    {
      "inputs": [],
      "name": "rental",
      "outputs": [
        {
          "internalType": "address",
          "name": "tenant",
          "type": "address"
        },
        {
          "internalType": "address",
          "name": "owner",
          "type": "address"
        },
        {
          "internalType": "uint256",
          "name": "itemId",
          "type": "uint256"
        },
        {
          "internalType": "uint256",
          "name": "amount",
          "type": "uint256"
        },
        {
          "internalType": "uint256",
          "name": "duration",
          "type": "uint256"
        },
        {
          "internalType": "uint256",
          "name": "deposit",
          "type": "uint256"
        },
        {
          "internalType": "uint256",
          "name": "startTime",
          "type": "uint256"
        },
        {
          "internalType": "enum RentalContract.Status",
          "name": "status",
          "type": "uint8"
        }
      ],
      "stateMutability": "view",
      "type": "function"
    },
    {
      "inputs": [],
      "name": "payDeposit",
      "outputs": [],
      "stateMutability": "payable",
      "type": "function"
    },
    {
      "inputs": [],
      "name": "completeRental",
      "outputs": [],
      "stateMutability": "nonpayable",
      "type": "function"
    },
    {
      "inputs": [
        {
          "internalType": "string",
          "name": "_reason",
          "type": "string"
        }
      ],
      "name": "cancelRental",
      "outputs": [],
      "stateMutability": "nonpayable",
      "type": "function"
    },
    {
      "inputs": [
        {
          "internalType": "uint256",
          "name": "_newDuration",
          "type": "uint256"
        }
      ],
      "name": "extendRental",
      "outputs": [],
      "stateMutability": "payable",
      "type": "function"
    },
    {
      "inputs": [],
      "name": "withdrawPayment",
      "outputs": [],
      "stateMutability": "nonpayable",
      "type": "function"
    },
    {
      "inputs": [],
      "name": "refundDeposit",
      "outputs": [],
      "stateMutability": "nonpayable",
      "type": "function"
    },
    {
      "inputs": [],
      "name": "getRentalInfo",
      "outputs": [
        {
          "internalType": "address",
          "name": "tenant",
          "type": "address"
        },
        {
          "internalType": "address",
          "name": "owner",
          "type": "address"
        },
        {
          "internalType": "uint256",
          "name": "itemId",
          "type": "uint256"
        },
        {
          "internalType": "uint256",
          "name": "amount",
          "type": "uint256"
        },
        {
          "internalType": "uint256",
          "name": "duration",
          "type": "uint256"
        },
        {
          "internalType": "uint256",
          "name": "deposit",
          "type": "uint256"
        },
        {
          "internalType": "uint256",
          "name": "startTime",
          "type": "uint256"
        },
        {
          "internalType": "uint8",
          "name": "status",
          "type": "uint8"
        }
      ],
      "stateMutability": "view",
      "type": "function"
    },
    {
      "inputs": [],
      "name": "getContractBalance",
      "outputs": [
        {
          "internalType": "uint256",
          "name": "",
          "type": "uint256"
        }
      ],
      "stateMutability": "view",
      "type": "function"
    }
  ],
  "bytecode": "0x608060405260405162000f0d38038062000f0d8339810160408190526200002691620002e8565b6001600160a01b038616620000825760405162461bcd60e51b815260206004820152601660248201527f496e76616c69642074656e616e7420616464726573730000000000000000000060448201526064015b60405180910390fd5b6001600160a01b038516620000da5760405162461bcd60e51b815260206004820152601560248201527f496e76616c6964206f776e657220616464726573730000000000000000000000604482015260640162000079565b600083116200012c5760405162461bcd60e51b815260206004820152601d60248201527f416d6f756e74206d7573742062652067726561746572207468616e2030000000604482015260640162000079565b600082116200017e5760405162461bcd60e51b815260206004820152601f60248201527f4475726174696f6e206d7573742062652067726561746572207468616e203000604482015260640162000079565b82341015620001d05760405162461bcd60e51b815260206004820152601460248201527f496e73756666696369656e74207061796d656e74000000000000000000000000604482015260640162000079565b604051806101000160405280876001600160a01b03168152602001866001600160a01b03168152602001858152602001848152602001838152602001828152602001428152602001600060048111156200022e576200022e62000345565b90528051600080546001600160a01b039283166001600160a01b0319918216178255602084015160018054919094169116178255604083015160025560608301516003556080830151600490815560a084015160055560c084015160065560e08401516007805493949193909260ff1990911691908490811115620002b757620002b762000345565b02179055509050505050505050506200035b565b80516001600160a01b0381168114620002e357600080fd5b919050565b60008060008060008060c087890312156200030257600080fd5b6200030d87620002cb565b95506200031d60208801620002cb565b945060408701519350606087015192506080870151915060a087015190509295509295509295565b634e487b7160e01b600052602160045260246000fd5b610ba2806200036b6000396000f3fe6080604052600436106100865760003560e01c80636f9fb98a116100595780636f9fb98a14610167578063a118babd14610182578063dd94944814610197578063e1eb3ea9146101b7578063efc5eb8f1461018257600080fd5b8063181d13fc1461008b5780634280941c146100ea5780635c274b86146101485780636d76a58514610152575b600080fd5b34801561009757600080fd5b506000546001546002546003546004546005546006546007546100cd976001600160a01b03908116971695949392919060ff1688565b6040516100e1989796959493929190610956565b60405180910390f35b3480156100f657600080fd5b506100ff6101ca565b604080516001600160a01b03998a168152989097166020890152958701949094526060860192909252608085015260a084015260c083015260ff1660e0820152610100016100e1565b610150610238565b005b34801561015e57600080fd5b50610150610378565b34801561017357600080fd5b506040514781526020016100e1565b34801561018e57600080fd5b50610150610557565b3480156101a357600080fd5b506101506101b23660046109d9565b610610565b6101506101c5366004610a8a565b61078d565b600080546001546002546003546004805460055460065460075489988998899889988998899889986001600160a01b03968716989590961696939592949093909160ff9091169081111561022057610220610940565b969f959e50939c50919a509850965094509092509050565b6000546001600160a01b031633146102935760405162461bcd60e51b81526020600482015260196024820152784f6e6c792074656e616e742063616e2063616c6c207468697360381b60448201526064015b60405180910390fd5b600060075460ff1660048111156102ac576102ac610940565b146102ea5760405162461bcd60e51b815260206004820152600e60248201526d496e76616c69642073746174757360901b604482015260640161028a565b6005543410156103335760405162461bcd60e51b8152602060048201526014602482015273125b9cdd59999a58da595b9d0819195c1bdcda5d60621b604482015260640161028a565b6007805460ff1916600117905560405134815233907ff1953715a33b9e021c0f2cf12911e8ac25fdb177bf6fc92d1331ae05201fe9f6906020015b60405180910390a2565b6000546001600160a01b031633148061039b57506001546001600160a01b031633145b6103e75760405162461bcd60e51b815260206004820152601a60248201527f4f6e6c7920706172746965732063616e2063616c6c2074686973000000000000604482015260640161028a565b600160075460ff16600481111561040057610400610940565b146104415760405162461bcd60e51b815260206004820152601160248201527052656e74616c206e6f742061637469766560781b604482015260640161028a565b6007805460ff191660021790556001546003546040516001600160a01b03909216916108fc82150291906000818181858888f1935050505015801561048a573d6000803e3d6000fd5b506005541561051557600080546005546040516001600160a01b039092169281156108fc029290818181858888f193505050501580156104ce573d6000803e3d6000fd5b506000546005546040519081526001600160a01b03909116907f698270f63d8b673ed55a5ca00d14001bd808b390dbe11d5b1b16624863f71f779060200160405180910390a25b6000546003546040519081526001600160a01b03909116907feedd444c80a4085394147f0c073e0eaa38424e2202f53fd968d52b23477945d19060200161036e565b6001546001600160a01b031633146105b15760405162461bcd60e51b815260206004820152601860248201527f4f6e6c79206f776e65722063616e2063616c6c20746869730000000000000000604482015260640161028a565b600260075460ff1660048111156105ca576105ca610940565b1461060e5760405162461bcd60e51b815260206004820152601460248201527314995b9d185b081b9bdd0818dbdb5c1b195d195960621b604482015260640161028a565b565b6000546001600160a01b031633148061063357506001546001600160a01b031633145b61067f5760405162461bcd60e51b815260206004820152601a60248201527f4f6e6c7920706172746965732063616e2063616c6c2074686973000000000000604482015260640161028a565b600060075460ff16600481111561069857610698610940565b14806106ba5750600160075460ff1660048111156106b8576106b8610940565b145b6106f65760405162461bcd60e51b815260206004820152600d60248201526c10d85b9b9bdd0818d85b98d95b609a1b604482015260640161028a565b6007805460ff1916600390811790915554801561074857600080546040516001600160a01b039091169183156108fc02918491818181858888f19350505050158015610746573d6000803e3d6000fd5b505b336001600160a01b03167fe0302caf6e4144d6d5e38aff7235f0df49508b8871a6134e18df650525a43d17836040516107819190610ad2565b60405180910390a25050565b6000546001600160a01b031633146107e35760405162461bcd60e51b81526020600482015260196024820152784f6e6c792074656e616e742063616e2063616c6c207468697360381b604482015260640161028a565b600160075460ff1660048111156107fc576107fc610940565b1461083d5760405162461bcd60e51b815260206004820152601160248201527052656e74616c206e6f742061637469766560781b604482015260640161028a565b600454811161088e5760405162461bcd60e51b815260206004820152601b60248201527f4e6577206475726174696f6e206d757374206265206c6f6e6765720000000000604482015260640161028a565b60045460009061089e9083610b20565b6004546003549192506000916108b5908490610b33565b6108bf9190610b4a565b90508034101561091c5760405162461bcd60e51b815260206004820152602260248201527f496e73756666696369656e74207061796d656e7420666f7220657874656e736960448201526137b760f11b606482015260840161028a565b600483905560038054829190600090610936908490610ab9565b9091555050505050565b634e487b7160e01b600052602160045260246000fd5b6001600160a01b0389811682528816602082015260408101879052606081018690526080810185905260a0810184905260c081018390526101008101600583106109b057634e487b7160e01b600052602160045260246000fd5b8260e08301529998505050505050505050565b634e487b7160e01b600052604160045260246000fd5b6000602082840312156109eb57600080fd5b813567ffffffffffffffff80821115610a0357600080fd5b818401915084601f830112610a1757600080fd5b813581811115610a2957610a296109c3565b604051601f8201601f19908116603f01168101908382118183101715610a5157610a516109c3565b81604052828152876020848701011115610a6a57600080fd5b826020860160208301376000928101602001929092525095945050505050565b600060208284031215610a9c57600080fd5b5035919050565b634e487b7160e01b600052601160045260246000fd5b80820180821115610acc57610acc610aa3565b92915050565b600060208083528351808285015260005b81811015610aff57858101830151858201604001528201610ae3565b506000604082860101526040601f19601f8301168501019250505092915050565b81810381811115610acc57610acc610aa3565b8082028115828204841417610acc57610acc610aa3565b600082610b6757634e487b7160e01b600052601260045260246000fd5b50049056fea264697066735822122041c5a5b631899dad3a87542fa93ee474459b7136bd366eeb7a50a79b190f59f264736f6c63430008130033",
  "immutableReferences": {},
  "source": "// SPDX-License-Identifier: MIT\npragma solidity ^0.8.19;\n\ncontract RentalContract {\n    enum Status { CREATED, ACTIVE, COMPLETED, CANCELLED, DISPUTED }\n    \n    struct RentalInfo {\n        address tenant;\n        address owner;\n        uint256 itemId;\n        uint256 amount;\n        uint256 duration;\n        uint256 deposit;\n        uint256 startTime;\n        Status status;\n    }\n    \n    RentalInfo public rental;\n    \n    event RentalCompleted(address indexed tenant, uint256 amount);\n    event RentalCancelled(address indexed initiator, string reason);\n    event DepositPaid(address indexed tenant, uint256 amount);\n    event DepositRefunded(address indexed recipient, uint256 amount);\n    \n    modifier onlyTenant() {\n        require(msg.sender == rental.tenant, \"Only tenant can call this\");\n        _;\n    }\n    \n    modifier onlyOwner() {\n        require(msg.sender == rental.owner, \"Only owner can call this\");\n        _;\n    }\n    \n    modifier onlyParties() {\n        require(msg.sender == rental.tenant || msg.sender == rental.owner, \"Only parties can call this\");\n        _;\n    }\n    \n    constructor(\n        address _tenant,\n        address _owner,\n        uint256 _itemId,\n        uint256 _amount,\n        uint256 _duration,\n        uint256 _deposit\n    ) payable {\n        require(_tenant != address(0), \"Invalid tenant address\");\n        require(_owner != address(0), \"Invalid owner address\");\n        require(_amount > 0, \"Amount must be greater than 0\");\n        require(_duration > 0, \"Duration must be greater than 0\");\n        require(msg.value >= _amount, \"Insufficient payment\");\n        \n        rental = RentalInfo({\n            tenant: _tenant,\n            owner: _owner,\n            itemId: _itemId,\n            amount: _amount,\n            duration: _duration,\n            deposit: _deposit,\n            startTime: block.timestamp,\n            status: Status.CREATED\n        });\n    }\n    \n    function payDeposit() external payable onlyTenant {\n        require(rental.status == Status.CREATED, \"Invalid status\");\n        require(msg.value >= rental.deposit, \"Insufficient deposit\");\n        \n        rental.status = Status.ACTIVE;\n        emit DepositPaid(msg.sender, msg.value);\n    }\n    \n    function completeRental() external onlyParties {\n        require(rental.status == Status.ACTIVE, \"Rental not active\");\n        \n        rental.status = Status.COMPLETED;\n        \n        //   \n        payable(rental.owner).transfer(rental.amount);\n        \n        //   \n        if (rental.deposit > 0) {\n            payable(rental.tenant).transfer(rental.deposit);\n            emit DepositRefunded(rental.tenant, rental.deposit);\n        }\n        \n        emit RentalCompleted(rental.tenant, rental.amount);\n    }\n    \n    function cancelRental(string memory _reason) external onlyParties {\n        require(rental.status == Status.CREATED || rental.status == Status.ACTIVE, \"Cannot cancel\");\n        \n        rental.status = Status.CANCELLED;\n        \n        //    \n        uint256 refundAmount = rental.amount;\n        if (rental.status == Status.ACTIVE) {\n            refundAmount += rental.deposit;\n        }\n        \n        if (refundAmount > 0) {\n            payable(rental.tenant).transfer(refundAmount);\n        }\n        \n        emit RentalCancelled(msg.sender, _reason);\n    }\n    \n    function extendRental(uint256 _newDuration) external payable onlyTenant {\n        require(rental.status == Status.ACTIVE, \"Rental not active\");\n        require(_newDuration > rental.duration, \"New duration must be longer\");\n        \n        uint256 additionalTime = _newDuration - rental.duration;\n        uint256 additionalCost = (rental.amount * additionalTime) / rental.duration;\n        \n        require(msg.value >= additionalCost, \"Insufficient payment for extension\");\n        \n        rental.duration = _newDuration;\n        rental.amount += additionalCost;\n    }\n    \n    function withdrawPayment() external onlyOwner {\n        require(rental.status == Status.COMPLETED, \"Rental not completed\");\n        //    completeRental()\n    }\n    \n    function refundDeposit() external onlyOwner {\n        require(rental.status == Status.COMPLETED, \"Rental not completed\");\n        //    completeRental()\n    }\n    \n    function getRentalInfo() external view returns (\n        address tenant,\n        address owner,\n        uint256 itemId,\n        uint256 amount,\n        uint256 duration,\n        uint256 deposit,\n        uint256 startTime,\n        uint8 status\n    ) {\n        return (\n            rental.tenant,\n            rental.owner,\n            rental.itemId,\n            rental.amount,\n            rental.duration,\n            rental.deposit,\n            rental.startTime,\n            uint8(rental.status)\n        );\n    }\n    \n    function getContractBalance() external view returns (uint256) {\n        return address(this).balance;\n    }\n}",
  "sourcePath": "/Users/zharkyn/Desktop/diplom/smart-contracts/contracts/RentalContract.sol",
  "compiler": {
    "name": "solc",
    "version": "0.8.19+commit.7dd6d404.Emscripten.clang"
  },
  "schemaVersion": "3.4.16",
  "updatedAt": "2025-05-29T18:26:13.834Z",
  "devdoc": {
    "kind": "dev",
    "methods": {},
    "version": 1
  },
  "userdoc": {
    "kind": "user",
    "methods": {},
    "version": 1
  }
}